:020000040800F2
:10000000304B002061020008AB2A00085D24000884
:10001000A92A0008F9080008E538000800000000D7
:10002000000000000000000000000000A101000826
:10003000FB08000800000000FD010008192F00085F
:100040007B0200087B0200087B0200087B0200089C
:100050007B0200087B0200087B0200087B0200088C
:100060007B0200087B0200087B0200087B0200087C
:100070007B0200087B0200087B0200087B0200086C
:100080007B0200087B0200087B0200087B0200085C
:100090007B0200087B0200087B0200087B0200084C
:1000A0007B0200087B0200087B0200087B0200083C
:1000B0007B0200087B0200087B0200087B0200082C
:1000C0007B0200087B0200087B0200087B0200081C
:1000D0007B0200087B020008613500086D350008CE
:1000E0007B0200087B0200087B0200087B020008FC
:1000F0007B0200087B0200087B0200087B020008EC
:100100007B0200087B0200087B0200087B020008DB
:100110007B0200087B020008D52F0008E12F0008B1
:100120007B0200087B0200087B0200087B020008BB
:100130007B0200087B0200087B0200087B020008AB
:100140007B0200087B0200087B0200087B0200089B
:100150007B0200087B0200087B0200087B0200088B
:100160007B0200087B0200087B0200087B0200087B
:100170007B0200087B0200087B02000800000000F0
:100180007B0200087B020008DFF810D000F0A2FB21
:100190000048004715420008AFF30080304B0020B4
:1001A0002C4B19680868B0E8F04F80F30988BFF35A
:1001B0006F8F4FF0000080F311887047000000003F
:1001C00008480068006880F308884FF0000080F35A
:1001D000148862B661B6BFF34F8FBFF36F8F00DF35
:1001E00000BF00BF08ED00E0DFF80C00016841F43B
:1001F00070010160704700BF88ED00E0EFF30980F7
:10020000BFF36F8F134B1A681EF0100F08BF20ED5D
:10021000108A20E9F04F106009B44FF0500080F3CD
:100220001188BFF34F8FBFF36F8F04F0ADFC4FF019
:10023000000080F3118809BC19680868B0E8F04F25
:100240001EF0100F08BFB0EC108A80F30988BFF3CE
:100250006F8F704754000020EFF305807047000057
:100260000648804706480047FEE7FEE7FEE7FEE750
:10027000FEE7FEE7FEE7FEE7FEE7FEE7C52F000824
:10028000890100082DE9F05F0546002092469B4653
:1002900088460646814640241BE02846414647469C
:1002A000224600F031FA53465A46C01A914110D303
:1002B00011461846224600F018FA2D1A67EB01087D
:1002C0004F4622460120002100F00FFA17EB0009EB
:1002D0004E41201EA4F10104DFDC484631462A4687
:1002E0004346BDE8F09F40EA01039B0703D009E0C5
:1002F00008C9121F08C0042AFAD203E011F8013B12
:1003000000F8013B521EF9D27047D2B201E000F86A
:10031000012B491EFBD270470022F6E710B51346A9
:100320000A4604461946FFF7F0FF204610BD2DE9A6
:10033000FE4F804681EA0300C00F0C46009021F07A
:10034000004123F00045B8EB0200A94105D2404628
:10035000214690461C460B46024623F000401043BF
:1003600047D0270DC7F30A00C3F30A510290401A81
:10037000019040286BDAC3F3130040F4801B00980F
:10038000924620B10023D2EB030A63EB0B0B0198DA
:100390005946C0F14002504600F0A7F906460D4606
:1003A00050465946019A00F0BFF910EB0800614130
:1003B000002487EA115284EAE7731A4340D0009A76
:1003C00062B3019A012A4FEA075215DC001B61EB68
:1003D00002014FF0004202EA0752CDE90042001C40
:1003E00041F5801132462B4600F0F6F903B0BDE826
:1003F000F08F40462146F9E7001B61EB0201001C2B
:1004000041F5801300185B412018A2F5001747EB57
:10041000030140EAD570B6196D4111E06D084FEA4D
:10042000360645EAC0754FEA0752001B61EB020130
:10043000001C41F5801149084FEA30000019514174
:1004400032462B4603B0BDE8F04F00F0B6B9009835
:10045000012240000023D0EB020263EBE07300981E
:1004600021464FEAE074B8EB000061EB0401E9E7D4
:1004700083F000435BE781F0004158E72DE9FE4F30
:1004800081EA030404F0004421F0004100944FF09D
:10049000000B23F0004350EA01045ED052EA03044B
:1004A0005BD0C3F30A54C1F30A552C44A4F2F334CD
:1004B0000194A0FB0254C1F3130141F48011C3F372
:1004C000130343F4801301FB024400FB034E840A30
:1004D000970A44EA815447EA8357A4FB07680295C8
:1004E0008D0A05FB07854FEA932C04FB0C54270566
:1004F000029D4FEA065847EA1637B5EB08056EEB42
:10050000070C870E920E47EA811742EA8312A7FB77
:100510000201B6EB0B0164EB00042B0D43EA0C3334
:100520005E1844EB1C50DA465146E7FB0201C5F366
:1005300013044FEA0B3343EA14534FEA0432019C8D
:1005400043EA0603A4F10C040294009CCDE900B434
:1005500000F042F903B0BDE8F08F00200146F9E752
:100560002DE9F04D81EA030404F0004B21F0004531
:1005700014464FF0000A23F0004150EA050220D053
:1005800054EA01021DD0C5F30A570246C5F313030E
:10059000C1F31300C1F30A5640F4801543F48013ED
:1005A000A7EB0608101BD64608F2FD3873EB0500D2
:1005B00002D308F1010801E092185B41B8F1000F85
:1005C00003DA00200146BDE8F08D00204FF48011D1
:1005D000064684460EE0171B73EB050705D3121B76
:1005E00063EB050306434CEA010C49084FEA30006F
:1005F00092185B4150EA0107EDD152EA030012D094
:1006000082EA040083EA0501084305D0101BAB41D0
:1006100006D20122002306E000224FF0004302E050
:100620006FF0010253101AEB06004CEB085110EB6F
:100630000A0041EB0B01BDE8F04D00F0BEB80EB56D
:10064000C10F80EAE0700844CA07002140F233433A
:100650008DE80E000A460B4600F0BEF803B000BD60
:1006600000F0004230F000400AD0C10D01F5607189
:10067000C0F3160042EA0151C20840071143704717
:1006800000200146704701F0004330B421F00041E2
:1006900050EA010206D00A0DA2F56072C1F31301FF
:1006A000002A02DC30BC00207047440F44EAC10439
:1006B000C100E01830BC00EBC25000F047B830B5C4
:1006C0000B46014600202022012409E021FA02F510
:1006D0009D4205D303FA02F5491B04FA02F52844AA
:1006E000151EA2F10102F1DC30BD202A04DB203A04
:1006F00000FA02F1002070479140C2F1200320FA75
:1007000003F3194390407047202A04DB203A21FA72
:1007100002F00021704721FA02F3D040C2F120021A
:100720009140084319467047202A06DBCB17203A30
:1007300041FA02F043EAE07306E041FA02F3D040E6
:10074000C2F1200291400843194670470029A8BF12
:100750007047401C490008BF20F00100704710B4EA
:10076000B0FA80FC00FA0CF050EA010404BF10BC9F
:10077000704749B1CCF1200421FA04F411FA0CF1CC
:1007800018BF012121430843A3EB0C01CB1D4FEA05
:1007900000614FEA102042BF002010BC704700EB00
:1007A000C35010440029A4BF10BC7047401C49002E
:1007B00008BF20F0010010BC704710B5141E73F183
:1007C000000408DA401C41F1000192185B411A4311
:1007D00001D120F0010010BD2DE9F04D92469B465D
:1007E00011B1B1FA81F202E0B0FA80F22032904603
:1007F000FFF77BFF04460F4640EA0A0041EA0B017F
:1008000053465A46084313D0114653EA010019D003
:10081000C8F140025046FFF777FF05460E465046A6
:1008200059464246FFF761FF084305D0012004E026
:1008300020463946BDE8F08D0020054346EAE076C3
:100840002C4337430A986305E40AA0EB0800002212
:10085000FD0A44EA47540A3002D500200146E9E780
:10086000010510196941DDE9084500196941BDE834
:10087000F04DA2E7C1F30A52C1F3130140F2FF3376
:1008800041F480119A4202DA00200146704740F29A
:1008900033439A42A2F2334202DC5242FFF734BFA2
:1008A000FFF723BF30B5041E71F1000404DB4FF0E5
:1008B0000044404264EB0101141E73F1000405DBA7
:1008C0001C464FF00043524263EB0403994208BFB9
:1008D000904230BD064C074D06E0E06840F0010351
:1008E00094E8070098471034AC42F6D3FFF750FC69
:1008F000F04F000810500008FEE7704772B6FEE7A0
:1009000030B500209FED3E0A3E49044603460246AC
:100910008D5C3D2D02D0212D0AD001E0501CC0B2CB
:10092000521CD2B20A2AF3D30A5C2D2A03D005E066
:10093000521ED4B2F8E7401CC0B20123221A521C46
:10094000D2B29FED311ADFED310A042A04D0052A14
:1009500013D0062A2AD04EE00A5C0844303A817847
:1009600000EE102A303901EE901AB8EEC00AC078B5
:10097000F8EEE11A01EE810A36E00A18085C5478B4
:10098000303800EB80006FF02F0101EB4000204475
:1009900000EE100AD078303801EE900AB8EEC00AA6
:1009A0001079F8EEE11A01EE810A1DE00A18085CE0
:1009B0009478303800EBC00101EB001004EB8000AC
:1009C0005178134C01EB810104EB4101084400EE26
:1009D000100A1079303801EE900AB8EEC00A50794A
:1009E000F8EEE11A01EE810A303801EE100AB8EE95
:1009F000C11A01EE200A002B01D0B1EE400A30BD31
:100A000000000000F0060020CDCCCC3D0AD7233CEE
:100A1000F0FDFFFF2DE9F0410446876D00F054F929
:100A2000064694F835000025022806D0802060652F
:100A300084F834500120BDE8F0812068016821F07D
:100A4000160101602068416921F080014161206C3C
:100A500008B9A06C20B12068016821F0080101608C
:100A60002068016821F0010101600CE000F02CF920
:100A7000801B052807D920206065032084F83500F5
:100A800084F83450D7E720680068C007EED194F8A6
:100A90005C103F208840B860012084F8350084F85D
:100AA00034500020C7E790F83510022903D0802188
:100AB000416501207047052180F835100068016804
:100AC00021F0010101600020704700002DE9F84F7E
:100AD000DFF8BCA10022012503264FF00F090AF11F
:100AE000040BAAF1040E00BF0B6805FA02F42340C0
:100AF000A34270D10F7907F00307012F01D0022F15
:100B000016D187684FEA420806FA08FC27EA0C0764
:100B1000D1F80CC00CFA08FC4CEA070CC0F808C06D
:100B20004768A7430C79C4F3001494403C434460E5
:100B30000C79E443A4070AD0C4684FEA420C06FAD1
:100B40000CF7BC438F6807FA0CF72743C7600C7992
:100B500004F00304022C12D1D40800EB840CDCF85E
:100B600020405707FF0E09FA07F824EA0804D1F8D5
:100B7000108008FA07F848EA0408CCF820800468D6
:100B80004FEA420C06FA0CF7BC430F7907F0030753
:100B900007FA0CF7274307604C6814F4403F70D005
:100BA0003C4C276847F480472760246822F00307FD
:100BB00004F480440094384C07EB040CDCF808483B
:100BC00097074FEA177809FA08F7BC43334FB84242
:100BD00002D1002724E054E0314FB84201D101276F
:100BE0001EE0304FB84201D1022719E02E4FB84223
:100BF00001D1032714E02D4FB84201D104270FE0A3
:100C00002B4FB84201D105270AE02A4FB84201D143
:100C1000062705E0284FB84201D1072700E0082742
:100C200007FA08F72743CCF80878DAF80040574667
:100C3000D1F804C09C435FEACC2C00D51C433C6037
:100C4000DBF800405F46D1F804C09C435FEA8C2C7F
:100C500000D51C433C60DEF800407746D1F804C064
:100C60009C435FEA8C3C00D51C433C60084F083F26
:100C70003C68D1F804C09C435FEACC3C00D51C43DF
:100C80003C60521C102AFFF42FAFBDE8F88F000023
:100C9000083C01404438024000300140000002405E
:100CA0000004024000080240000C02400010024014
:100CB0000014024000180240001C02400AB1816189
:100CC00070470904FBE70000014880687047000096
:100CD0001400002070B5040025D094F83D000025D4
:100CE00020B984F83C50204600F0B8F8242084F85D
:100CF0003D002068016821F0010101602068016861
:100D000041F4004101602068016821F40041016064
:100D100000F050FA4D4A6168914201D84C4900E018
:100D20004C49884201D2012070BD4B492368B0FB79
:100D3000F1F15E6826F03F060E435E606368934201
:100D400006D94FF4967359434FF47A73B1FBF3F11C
:100D50002368491C1E6A26F03F0631431962616808
:100D6000914210D84900401EB0FBF1F2521CC2F370
:100D70000B02042A01D2042022E0B0FBF1F0401C57
:100D8000C0F30B001CE0A268F2B301EBC10303EB5C
:100D90000116431EB3FBF6F35B1C43F480431B05B3
:100DA00049D092B301EBC10202EB0111401EB0FB2E
:100DB000F1F0401CC0F30B0040F4804040F40040D0
:100DC0002168CA694CF6FF739A431043C861D4E99D
:100DD000071001432068026822F0C002114301603D
:100DE000D4E9030101432068826848F2FF339A4343
:100DF00011438160D4E9050108432168CA6822F0E3
:100E0000FF021043C86001E00EE016E020680168B0
:100E100041F0010101602564202084F83D00256334
:100E200084F83E50002070BD01EB4106431EB3FB29
:100E3000F6F35B1CB3E70120C2E701EB4101401E62
:100E4000B0FBF1F0401CC0F30B00B7E7A086010037
:100E500080841E0000093D0040420F002DE9F04152
:100E600086B0044614216846FFF756FA2F4A2168D7
:100E7000DFF8BC8000242E4812250326042708F141
:100E8000100891421CD1016841F002010160006824
:100E900002AA00F002000590C020CDE9000582E81A
:100EA000D00069462348FFF711FED8F8001041F43E
:100EB0000011C8F80010D8F8000000F4001031E06C
:100EC0001D4A91422FD1016841F00401016001687F
:100ED00001F004010591016841F001010160006821
:100EE000694600F0010005905015CDE9000502AA01
:100EF000124882E8D000FFF7E9FD4FF48070CDE999
:100F0000000502AA694682E8D0000D48FFF7DEFD21
:100F1000D8F8001041F40001C8F80010D8F800001B
:100F200000F40000059006B0BDE8F08100540040D8
:100F30003038024000040240005C004000080240DB
:100F400000000240024881680278114481607047C5
:100F5000140000200B4810B5016841F400710160D5
:100F6000016841F480610160016841F480710160B1
:100F7000032000F073F80F2000F006F800F024F8CA
:100F8000002010BD003C024070B50D4D04464FF4EA
:100F90007A712878B1FBF0F00A490968B1FBF0F0EA
:100FA00000F010FB48B9102C07D200222146501E39
:100FB00000F034F800206C6070BD012070BD0000AE
:100FC00014000020200000200C4882B0016841F489
:100FD00080410160006800F4804000900748001FD5
:100FE000016841F0805101600068002200F08050EB
:100FF00000900F21901E02B000F010B8443802405B
:10100000002809DB00F01F02012191404009800007
:1010100000F1E020C0F8001170470000F0B40E4B62
:101020001B680C46C3F30223C3F10705042D00D946
:101030000425191D072901D2002300E0DB1E01262B
:1010400006FA05F1491E214099409E40761E164041
:101050003143F0BC02F06ABC0CED00E0064900F040
:10106000070208684FF6FF03184040EA0220034ACF
:1010700010430860704700000CED00E00000FA0526
:101080002DE9F0470E46050065D0DFF81481D8F849
:101090000000F7B200F00700B04207D288F80070F5
:1010A000D8F8000000F00700B04254D128683D4C49
:1010B000810712D5400703D5206840F4E050206036
:1010C0002878000703D5206840F46040206020683D
:1010D000A96820F0F000084320602878C0072DD0D0
:1010E000304968680839012812D0022813D0032833
:1010F00011D00968890700292DDA216821F0030140
:1011000001432160FFF7E0FD814641F2883A0EE09D
:1011100009688903EFE709688901ECE7FFF7D4FD67
:10112000A0EB0901514502D90320BDE8F0872068F2
:10113000696800F00C00B0EB810FEFD1D8F8001017
:10114000404601F00701B14207D90770006800F07E
:101150000700B04201D00120E7E72878400705D515
:101160002068E96820F4E0500843206028780007F0
:1011700006D52068296920F4604040EAC10020605B
:1011800000F038F82168084AC1F30311515CC840E7
:101190000649086006480068FFF7F6FE0020C4E72D
:1011A000003C024008380240B44F000820000020F4
:1011B000180000200448054900680968044AC1F382
:1011C0008221515CC840704720000020083802404E
:1011D000C44F00080448054900680968044AC1F37F
:1011E0004231515CC840704720000020083802405E
:1011F000C44F0008154810B5006810F00C021448E0
:1012000013D01449042A0FD0082A0ED10F4C241FE2
:101210002268236802F03F025B0207D52068C0F312
:101220008810A0FB010106E0084610BD2168C1F34B
:101230008811A1FB00010023FFF724F82168C1F306
:101240000141491C4900B0FBF1F010BD08380240D3
:101250000024F40040787D012DE9F84F04006ED0A1
:101260002078DFF84C93C007A9F104054AD009F1B2
:1012700004000168C1F38101012908D00068C0F3AE
:10128000810002280AD1D9F80000400206D528685A
:10129000800337D560680028E1D033E06068B0F59E
:1012A000803F10D0B0F5A02F286810D020F48030F7
:1012B0002860286820F4802028606068A8B1FFF7C3
:1012C00003FD06460DE0286840F48030F4E740F462
:1012D00080202860F7E700BFFFF7F6FC801B64283A
:1012E00073D828688003F7D50CE0FFF7EDFC0646BD
:1012F00005E000BFFFF7E8FC801B6428F0D82868F1
:101300008003F7D42078DFF8AC8280074FF0000A22
:101310003ED5A748001D016811F00C0F08D00068E9
:10132000C0F3810002280BD1D9F80000400207D495
:101330002868800716D5E068012800D112E033E163
:10134000E068B8B10120C8F80000FFF7BDFC064610
:1013500005E000BFFFF7B8FC801B0228C0D8286852
:101360008007F7D52868216920F0F80040EAC1001D
:1013700028600DE0C8F800A0FFF7A6FC064604E0D0
:10138000FFF7A2FC801B02281FD828688007F7D42B
:101390002078000722D5864F87486169703771B180
:1013A00001210160FFF790FC064604E0FFF78CFC8A
:1013B000801B022809D838688007F7D50EE0C0F8EE
:1013C00000A0FFF781FC064605E082E0FFF77CFC09
:1013D000801B02287DD838688007F7D42078400722
:1013E00068D5DFF8CCB100270BF13C0BDBF800002F
:1013F000C0000BD4DBF8001041F08051CBF8001096
:10140000DBF80000012700F0805000906B4E306840
:10141000C00510D4306840F480703060FFF754FC91
:10142000009005E0FFF750FC0099401A022850D8C0
:101430003068C005F6D55E4EA0686C3601280FD026
:101440000528306810D020F001003060306820F0AE
:1014500004003060A068B8B1FFF736FC00900FE0E0
:10146000306840F00100F4E740F004003060F7E736
:10147000FFF72AFC0099411A41F28830814266D870
:1014800030688007F4D50EE0FFF71EFC009007E0FF
:10149000FFF71AFC0099411A41F28830814256D870
:1014A00030688007F4D42FB1DBF8001021F08051B0
:1014B000CBF80010A069C8B33D49091D0968C1F304
:1014C000810102294AD00228504607D0C8F860009E
:1014D00000E03CE0FFF7F8FB04463BE04746C8F875
:1014E0006000FFF7F1FB064605E000BFFFF7ECFBED
:1014F000801B02282BD828688001F7D4D4E9070183
:101500000843A16A2E4A490802EB0141626A41EA96
:101510008211084394F82C1040EA0161C9F80010C8
:1015200001203866FFF7D0FB044606E03EE000BF2E
:10153000FFF7CAFB001B022809D828688001F7D5ED
:1015400034E000BFFFF7C0FB001B022802D90320D4
:10155000BDE8F88F28688001F4D427E00128F7D08F
:10156000D9F80000E26900F4800191421CD1226A9E
:1015700000F03F01914217D147F6C071626A014005
:10158000B1EB821F10D1A26A4FF0FF3300F440315B
:1015900003EB5202B1EB024F06D194F82C1000F08D
:1015A0007060B0EB016F01D00120D1E70020CFE7E0
:1015B0000438024000004742800E4742007000405D
:1015C0000000FFFF10B5401EB0F1807F01D3012065
:1015D00010BD4FF0E02460610F21601702F0A6F902
:1015E0000020A06107202061002010BD70477047D7
:1015F00070B590F83C20012A32D0012480F83C409C
:10160000022280F83D2003685A689D6822F0700627
:101610000A6832435A60134B02689A4214D0B2F1FE
:10162000804F11D0104B9A420ED0104B9A420BD0E3
:101630000F4B9A4208D00F4B9A4205D00E4B9A425C
:1016400002D00E4B9A4204D1496825F08003194319
:10165000916080F83D40002180F83C10084670BD44
:10166000022070BD0000014000040040000800405E
:10167000000C004000040140004001400018004000
:1016800010B5040003D094F83D0010B107E001202C
:1016900010BD002084F83C00204600F01FF8022016
:1016A00084F83D00211D206801F0A0FC012084F891
:1016B000460084F83E0084F83F0084F8400084F837
:1016C000410084F8420084F8430084F8440084F820
:1016D000450084F83D00002010BD000008B52C4AEC
:1016E00001682C4891420ED1016841F0100101605F
:1016F0000068002200F01000009005213620FFF75E
:101700008DFC362010E0244A914211D1016841F04D
:10171000200101600068002200F0200000900721F5
:101720003720FFF77BFC3720BDE80840FFF768BC97
:10173000184A1A4B121D994207D1106840F4003024
:101740001060106800F4003009E0154B994208D190
:10175000106840F480201060106800F48020009031
:1017600008BD104A914207D1016841F08001016033
:10177000006800F08000F2E70B4A9142F0D1016866
:1017800041F480710160006800F48070E7E70000B8
:101790000010004040380240001400400044014066
:1017A00000480140001C00400020004090F83D101F
:1017B000012901D001207047022180F83D10016805
:1017C000CA6842F00102CA6000681149884214D018
:1017D000B0F1804F11D00F4988420ED00E49884297
:1017E0000BD00E49884208D00D49884205D00D49DA
:1017F000884202D00C49884204D1816801F0070177
:10180000062903D0016841F0010101600020704702
:10181000000001400004004000080040000C0040AF
:101820000004014000400140001800402DE9F04153
:101830000D46040003D094F83D0018B108E00120E3
:10184000BDE8F081002084F83C00204600F040F81C
:10185000022084F83D002068816844F20702914329
:101860008160211D206801F0C1FB226890689169A8
:10187000166A2B68AF69034340F20330814341EAA3
:101880000721A868EF6908434FF6FC418843E968DF
:1018900040EA0720014328692F6A000140EA073027
:1018A000084369686D6926F0AA0646EA05152943CA
:1018B00093602268906154F8460B0162012004F89D
:1018C0001F09E0752076E0762077A0750020B7E745
:1018D00030B587B0044614216846FEF71DFD246824
:1018E0003E4A00213E480223012594421BD13C4A36
:1018F0001432146844F001041460126802F001020A
:101900000592026842F010020260006800F01000C8
:1019100005904FF420600090CDE90131CDE9031529
:101920006946304838E02E4A1032B4F1804F1BD05F
:101930002D4DAC4234D1146844F002041460126896
:1019400002F002020592026842F00402026000689E
:1019500000F004000590C0200090CDE90131CDE9F0
:1019600003136946214817E0146844F00104146029
:10197000126802F001020592026842F00102026060
:10198000006800F00100059022200090CDE90131AF
:10199000CDE9031569461648FFF798F807B030BD42
:1019A000144DAC42FAD1146844F004041460126877
:1019B00002F004020592026842F008020260006828
:1019C00000F0080005904FF440500090CDE901313F
:1019D000CDE9031369460848DEE700000000014036
:1019E000303802400010024000040040000802406D
:1019F0000000024000080040000C024070B590F862
:101A00003E60044690F83F5090F8423090F84320F2
:101A1000022021B104290ED0012E1BD114E0012E89
:101A200018D1012B16D184F83E0084F8420001221F
:101A30000021206820E0012D0CD1012A0AD184F870
:101A40003F0084F8430014E0012D03D1012B01D1A4
:101A5000012A01D0012070BD84F83E0084F83F00C7
:101A600084F8420084F8430001220021206801F03C
:101A700021FB01220421206801F01CFB2068016881
:101A800041F001010160002070BD704770B504464F
:101A9000006801694FF00005C943890715D4C16882
:101AA000C943890711D4E91E01610120207720680C
:101AB00080698007204602D0FFF7E7FF04E000F0CE
:101AC000FFF8204600F091F9257720680169C943A5
:101AD000490717D4C168C943490713D46FF00401FB
:101AE0000161022020772068806910F4407F204641
:101AF00002D0FFF7CAFF04E000F0E2F8204600F051
:101B000074F9257720680169C943090716D4C168AB
:101B1000C943090712D46FF008010161042020773E
:101B20002068C0698007204602D0FFF7AEFF04E0BE
:101B300000F0C6F8204600F058F9257720680169C2
:101B4000C943C90617D4C168C943C90613D46FF085
:101B500010010161082020772068C06910F4407FDF
:101B6000204602D0FFF791FF04E000F0A9F82046DC
:101B700000F03BF9257720680169C943C90708D1FE
:101B8000C168C943C90704D1891E0161204600F01C
:101B900091F920680169C943090609D4C168C9439C
:101BA000090605D46FF0800101612046FFF71EFD94
:101BB00020680169C943490609D4C168C943490677
:101BC00005D46FF040010161204600F081F92068E2
:101BD0000169C94389060BD4C168C943890607D482
:101BE0006FF0200101612046BDE87040FFF7FFBCA7
:101BF00070BD0000F0B587B0044614216846FEF7BA
:101C00008BFB2468274E00222749022303252748FF
:101C1000B44209D10C6844F020040C60096801F05A
:101C200020010591402122E0214F8026BC4211D1A4
:101C30000C6844F020040C6009680096CDE901327C
:101C400001F02001CDE9045103926946FEF73EFF01
:101C500007B0F0BD174F0925BC420FD10C6844F006
:101C600020040C60096801F020010591B91500916C
:101C7000CDE90132CDE903256946E7E70E48844204
:101C8000E6D1086840F00100086008680096CDE9D8
:101C9000013200F00100CDE9045069460392074883
:101CA000D4E70000004401403038024000140240F4
:101CB00000480140001C004000200040000002409D
:101CC000704770B5044690F83C0000260D46012888
:101CD0000FD0012084F83C006AB1042A1DD0082AE4
:101CE0002FD00C2A3FD00126002084F83C0030463B
:101CF00070BD022070BD206801F0EAF9206881699A
:101D000041F0080181612068816921F0040181614D
:101D1000206881692A69114311E0206801F008FAFE
:101D20002068816941F4006181612068816921F442
:101D300080618161206881692A6941EA02218161AB
:101D4000D2E7206801F02AFA2068C16941F0080151
:101D5000C1612068C16921F00401C1612068C169C5
:101D60002A69114311E0206801F04CFA2068C1692A
:101D700041F40061C1612068C16921F48061C161E1
:101D80002068C1692A6941EA0221C161ACE710B546
:101D9000040003D094F83D0010B107E0012010BD0D
:101DA000002084F83C00204600F01EF8022084F851
:101DB0003D00211D206801F019F9012084F846003A
:101DC00084F83E0084F83F0084F8400084F8410025
:101DD00084F8420084F8430084F8440084F8450005
:101DE00084F83D00002010BD7047704710B50446D0
:101DF000022249B104290ED0082913D094F84100D9
:101E0000012816D0012010BD94F83E000128F9D118
:101E100084F83E200FE094F83F000128F2D184F8C6
:101E20003F2008E094F840000128EBD184F84020DE
:101E300001E084F841200122206801F03BF91649B5
:101E40002068164A884201D0904203D1436C43F483
:101E5000004343642068884213D0B0F1804F10D013
:101E60000F4988420DD00F4988420AD00E49884256
:101E700007D0904205D00D49884202D00C498842D3
:101E800004D1816801F00701062903D0016841F0FF
:101E900001010160002010BD00000140000401406C
:101EA0000004004000080040000C004000400140D9
:101EB0000018004010B500680449884205D100F0C0
:101EC0004BFEBDE8104000F08BBF10BD0014004079
:101ED0007047704770470000F8B50168044608680D
:101EE000CA684B6910F00F0F4FF0000559D003F08E
:101EF000010602F49077374365D0C10705D0D105BC
:101F000003D5216C41F001012164410705D5D907B2
:101F100003D0216C41F002012164810705D5D90766
:101F200003D0216C41F004012164010707D502F0C0
:101F30002001314303D0216C41F008012164216C60
:101F400000293AD0800604D5900602D5204601F03B
:101F5000B0F920684069216CC0F38010090700D4F3
:101F600060B3204601F07EF920684069400621D523
:101F70002068143050E8001F21F0400140E80012B2
:101F8000002AF5D1A06BA8B16C490165A06BFEF7E2
:101F90008AFD002811D0A06B016D01B0BDE8F040B2
:101FA000084783060FD593060DD52046BDE8F840B7
:101FB00001F07FB92046FFF78DFFF8BD2046FFF7FF
:101FC00089FF2564F8BD266B2023012E79D1C60632
:101FD00077D5D60675D508684868009048694006E8
:101FE00040D5A16B086840680004000CEAD0A28DBF
:101FF0008242E7D9E085C869B0F5807F2DD020689E
:102000000C3050E8001F21F4807140E80012002AD3
:10201000F5D12068143050E8001F21F0010140E89C
:102020000012002AF5D12068143050E8001F21F07A
:10203000400140E80012002AF5D184F83E302563C3
:1020400020680C3050E8001F21F0100140E8001219
:10205000002AF5D1A06BFEF7DDFCA08DE18D401AC2
:1020600081B229E0A08DE18D401A81B2E08D002877
:10207000A8D00029A6D020680C3050E8002F22F408
:10208000907240E80026002EF5D12068143050E808
:10209000002F22F0010240E80026002EF5D184F83E
:1020A0003E30256320680C3050E8002F22F01002EB
:1020B00040E80023002BF5D12046FFF70AFFF8BDCA
:1020C000FFE705062BD5150629D594F83D002128F4
:1020D000F5D1A068B0F5805F01D12069B0B1206A68
:1020E000411C2162216800784860E08C401E000499
:1020F000000CE084E3D12068C16821F08001C16058
:102100002068C16841F04001C160D8E7206A0088BA
:10211000C0F308004860206A801C2062E5E74006A2
:10212000CDD55006CBD5CA68204622F04002CA6001
:1021300084F83D3000F091F9C1E700005532000805
:1021400070B5040004D094F83D00002510B106E0FD
:10215000012070BD84F83C50204600F023F8242074
:1021600084F83D002068C16821F40051C160204618
:1021700001F000F92068016921F4904101612068B3
:10218000416921F02A0141612068C16841F4005190
:10219000C1602564202084F83D0084F83E000020C2
:1021A00070BD0000F0B587B0044614216846FEF704
:1021B000B3F83A4A26680021394802230324072548
:1021C00096421DD1364A1432166846F01006166043
:1021D000126802F010020592026842F001020260E9
:1021E000006802AA00F00100059082E83200600257
:1021F000CDE9000369462B48FEF768FC07B0F0BD47
:10220000274A294F1032BE4220D1166846F40036C4
:102210001660126802F400320592026842F0080269
:102220000260006802AE00F00800059086E8320007
:102230006020CDE9000369461C48FEF747FC0022F8
:1022400006212620FEF7EAFE262023E0184FBE4294
:10225000D4D1166846F480261660126802F48022F3
:102260000592026842F002020260006802AE00F0CD
:102270000200059086E832004FF44060CDE900038B
:1022800069460C48FEF722FC002206212720FEF7B3
:10229000C5FE2720FEF7B4FEB0E7000000100140A5
:1022A000303802400000024000440040000C024070
:1022B000004800400004024090F83E30202B0ED130
:1022C00059B152B190F83C30012B08D0012380F86D
:1022D0003C300023036301F0D3B801207047022093
:1022E000704700002DE9F0410646006825490025A9
:1022F000254C88421ED12078244F401CC1B2217049
:102300007A18E07802F8010C012902D0212802D0C5
:1023100009E0207107E0042001F02EF9FF211B489D
:10232000FDF7FAFF257018493D700122C91C1848B5
:10233000FFF7C2FF17493068884220D1134A6078FE
:10234000FF3261791154401CC0B26070FF2808D37D
:102350006570FF211046FDF7DFFF0FA001F0C4FA02
:1023600004E07D2902D165700120A070BDE8F04134
:10237000054907480122491D4430FFF79DBFBDE8CC
:10238000F0810000004400400C000020F006002016
:102390003409002000480040555341525433204531
:1023A00052524F52210D0A002DE9F843044690F88D
:1023B0003D001F4616460D4620284CD1C5B1BEB182
:1023C00094F83C00012846D0012084F83C004FF0EE
:1023D0000008C4F84080212084F83D00FEF774FC1A
:1023E000A6848146E684A068B0F5805F03D004E04F
:1023F0000120BDE8F883206928B12E465FF0000572
:1024000084F83C800EE00026FAE78021204601F0A7
:1024100054F8A0B9AEB116F8010B21684860E08C01
:10242000401EE084E08C4B464FF0000200970028ED
:10243000EBD14FF04001204601F03FF830B10320CE
:10244000D7E735F8020BC0F30800E6E7202084F850
:102450003D000020CDE70220CBE77047FEE70000FB
:1024600010B596B01C2211496846FDF73CFF0021CB
:10247000684601F017FF0E4C0C491C2220601C31ED
:1024800007A8FDF730FF002107A801F00BFF07495F
:1024900060601C2238310EA8FDF725FF00210EA830
:1024A00001F000FFA06016B010BD0000604F0008F2
:1024B00000000020F0B587B014216846FDF72CFF1E
:1024C00030480025016841F020010160016801F0F9
:1024D00020010591016841F080010160016801F06F
:1024E00080010591016841F004010160016801F07B
:1024F00004010591016841F001010160016801F0EA
:1025000001010591016841F010010160016801F0CD
:1025100010010591016841F002010160016801F0BC
:1025200002010591016841F0080101600068164E42
:1025300000F00800059000220F213046FEF7BEFB98
:10254000124F00223C213846FEF7B8FB01240094CC
:10255000CDE90145694630460395FEF7B7FA0E20EE
:1025600002258DE83100694630460394FEF7AEFA45
:102570003C208DE83100694638460394FEF7A6FA00
:1025800007B0F0BD3038024000140240000802409D
:102590000D4810B50B4901600C49416000214FF412
:1025A00080428160C0E9031241618161C1610162C1
:1025B000FEF790FB002803D0BDE81040FEF79EB95F
:1025C00010BD00000054004014030020A08601004C
:1025D0000D4810B50B4901600C49416000214FF4D2
:1025E00080428160C0E9031241618161C161016281
:1025F000FEF770FB002803D0BDE81040FEF77EB95F
:1026000010BD0000005C004068030020A0860100AF
:1026100010B588B01C216846FDF77EFE15481449A8
:10262000002401600321C0E9011440F2CF71C0E928
:1026300003148461FFF724F808B1FEF75FF90D4831
:10264000FFF7A5FB08B1FEF759F96020CDE90004BA
:1026500002940022694607480494FFF732FB08B150
:10266000FEF74CF90348FFF7C5FA08B010BD0000AB
:10267000004401406C05002010B588B01C2168465C
:10268000FDF74AFE15481449002401600321C0E902
:10269000011440F2CF71C0E903148461FEF7F0FF2A
:1026A00008B1FEF72BF90D48FFF771FB08B1FEF7F3
:1026B00025F96020CDE9000402940022694607480C
:1026C0000494FFF7FEFA08B1FEF718F90348FFF784
:1026D00091FA08B010BD000000480140B405002088
:1026E00010B588B01C216846FDF716FE1548144940
:1026F000002401600321C0E9011440F2CF71C0E958
:1027000003148461FEF7BCFF08B1FEF7F7F80D482B
:10271000FFF73DFB08B1FEF7F1F86020CDE90004BA
:1027200002940022694607480494FFF7CAFA08B1E8
:10273000FEF7E4F80348FFF75DFA08B010BD0000AB
:10274000001C0040FC05002010B588B01C21684624
:10275000FDF7E2FD15481449002401600321C0E99A
:10276000011440F2CF71C0E903148461FEF788FFC1
:1027700008B1FEF7C3F80D48FFF709FB08B1FEF7F3
:10278000BDF86020CDE900040294002269460748A4
:102790000494FFF796FA08B1FEF7B0F80348FFF784
:1027A00029FA08B010BD00000020004044060020B7
:1027B00010B58CB024216846FDF7AEFD0024164804
:1027C000099414490A9401600321C0E901144FF6E9
:1027D000FF72C0E903244461846100910120CDE9C6
:1027E0000140CDE90340CDE90540CDE90740694608
:1027F0000948FFF71BF808B1FEF780F8099409A90A
:1028000005480A94FEF7F4FE002801D0FEF776F89A
:102810000CB010BD00000140BC03002010B58CB00E
:1028200024216846FDF778FD0024154809944FF0EF
:1028300080410A9401600321C0E901140A1FC0E924
:102840000324846100910120CDE90140CDE90340DA
:10285000CDE90540CDE9074069460948FEF7E6FFA6
:1028600008B1FEF74BF8099409A905480A94FEF748
:10287000BFFE002801D0FEF741F80CB010BD0000EB
:102880000404002010B58CB024216846FDF744FDF7
:1028900000241648099414490A9401600321C0E9F0
:1028A00001144FF6FF72C0E90324846100910120F6
:1028B000CDE90140CDE90340CDE90540CDE9074030
:1028C00069460A48FEF7B2FF08B1FEF717F8099407
:1028D00009A906480A94FEF78BFE002801D0FEF7EE
:1028E0000DF80CB010BD0000000400404C040020A6
:1028F00010B58CB024216846FDF70EFD0024164863
:10290000099414490A9401600321C0E901144FF6A7
:10291000FF72C0E90324846100910120CDE90140E8
:10292000CDE90340CDE90540CDE9074069460A48B5
:10293000FEF77CFF08B1FDF7E1FF099409A90648FD
:102940000A94FEF755FE002801D0FDF7D7FF0CB022
:1029500010BD000000080040940400201CB50024B5
:102960000F4800940D490194016042F2CF01C0E983
:10297000011442F20F718461C160FEF781FE08B15B
:10298000FDF7BCFF0094694605480194FEF730FE50
:10299000002801D0FDF7B2FF1CBD00000010004070
:1029A000DC0400201CB500240E4800940C4901945E
:1029B000016042F2CF01C0E90114C7218461C16006
:1029C000FEF75EFE08B1FDF799FF009469460548E1
:1029D0000194FEF70DFE002801D0FDF78FFF1CBD0E
:1029E00000140040240500200C4810B50A4901607D
:1029F0004FF4E1314160002181600C22C160C0E9E7
:102A000004128161C161FFF79BFB002803D0BDE880
:102A10001040FDF773BF10BD00100140F00800200A
:102A20000E4810B50C4901604FF4E13141600021BE
:102A300081600C22C160C0E904128161C161FFF7AD
:102A40007FFB08B1FDF75AFFBDE8104001220449A1
:102A50000248FFF731BC0000004400403409002068
:102A60000F0000200E4810B50C4901604FF4E13111
:102A70004160002181600C22C160C0E904128161C3
:102A8000C161FFF75DFB08B1FDF738FFBDE81040FD
:102A9000012204490248FFF70FBC00000048004033
:102AA0007809002011000020FEE7FEE726489FED90
:102AB000250ADFED261A80ED000A80ED010A80ED7F
:102AC000020A80ED030A80ED070AC0ED041AF3EE56
:102AD000040A9FED1F1AC0ED050A80ED061A20308A
:102AE00080ED000A80ED010A80ED020A80ED030A04
:102AF00080ED070AC0ED041AC0ED050A80ED061A44
:102B0000203080ED000A80ED010A80ED020A80EDA0
:102B1000030A80ED070AC0ED041AC0ED050A80ED36
:102B2000061A203080ED000A80ED010A80ED020ACD
:102B300080ED030A80ED070A9FED060A103080EC55
:102B4000030A704700000000BC0900209A999342D4
:102B50000000004200008C422DE9F04F3748016828
:102B60000868C0F300183648C346C0F810804F6AA2
:102B7000344A076016683268C2F300154561746A0A
:102B8000314A446013681A68C2F300128261D3F8B4
:102B900024C0C0F808C0E646DFF8B0C0DCF800800A
:102BA000D8F800C0CCF3001CC0F81CC0D8F824C072
:102BB000C0F80CC05FEA0B084FF47A6A4FF00009C6
:102BC00009D05FEA0B0808D0574506DD4F6AC7F504
:102BD0008037076003E07F42FBE7C0F800903DB11B
:102BE00045B1544506DD746AC4F58034446003E0A1
:102BF0006442FBE7C0F804904AB132B1D64504DD27
:102C00005A6AA2F58032826001E0C0F80890BCF1F7
:102C1000000F02D06FEA0C02C260C1F8249009498B
:102C20000968C1F8249008490968C1F82490074947
:102C30000968C1F82490BDE8F08F00004C04002022
:102C40003400002094040020BC0300200404002071
:102C500010B5064C012211462046FEF72FF82046FB
:102C60000022BDE810400221FEF728B800140240FF
:102C700010B5064C002201212046FEF71FF8204621
:102C80000122BDE810400221FEF718B800140240EE
:102C900010B5064C012204212046FEF70FF820460D
:102CA0000022BDE810400821FEF708B800080240E5
:102CB00010B5064C002204212046FDF7FFFF2046F8
:102CC0000122BDE810400821FDF7F8BF00080240CE
:102CD00010B5064C012204212046FDF7EFFF2046E7
:102CE0000022BDE810400821FDF7E8BF00140240B3
:102CF00010B5064C002204212046FDF7DFFF2046D8
:102D00000122BDE810400821FDF7D8BF00140240A1
:102D100010B5064C012210212046FDF7CFFF2046BA
:102D20000022BDE810402021FDF7C8BF0008024086
:102D300010B5064C002210212046FDF7BFFF2046AB
:102D40000122BDE810402021FDF7B8BF0008024075
:102D500070B5074D041E02D004DDFFF779FF286827
:102D6000446370BDFFF784FF29686042486370BD0B
:102D7000FC05002070B5074D041E02D004DDFFF7EE
:102D800087FF2868446370BDFFF792FF296860429F
:102D9000486370BD6C05002070B5074D041E02D05D
:102DA00004DDFFF7A5FF2868446370BDFFF790FFBF
:102DB00029686042486370BD4406002070B5074D25
:102DC000041E02D004DDFFF7A3FF2868446370BD32
:102DD000FFF7AEFF29686042486370BDB40500206C
:102DE00010B501F0B7FCBDEEC00A114C10EE100A90
:102DF0002060FFF7ADFF01F0FDFCBDEEC00A10EE54
:102E0000100A6060FFF7C8FF01F0CCFCBDEEC00AFD
:102E100010EE100AA060FFF7ADFF01F013FDBDEE4C
:102E2000C00A10EE100AE060BDE81040FFF7C6BF10
:102E3000240000203C212648FEF7E0FD3C212548E7
:102E4000FEF7DCFD3C212448FEF7D8FD3C21234859
:102E5000FEF7D4FD00212248FEF7C8FF00212148DB
:102E6000FEF7C4FF00212048FEF7C0FF00211F48E5
:102E7000FEF7BCFF1E4C002205212046FDF71EFF79
:102E800001220A212046FDF719FF1A4C00221421C5
:102E90002046FDF713FF012228212046FDF70EFFF3
:102EA000B2EE040A144801F051FCB2EE040A1348D1
:102EB00001F04CFCB2EE040A114801F047FCB2EEFE
:102EC000040A104801F042FC052001F0DFF9FBE79D
:102ED0004C04002094040020BC03002004040020C3
:102EE000FC050020440600206C050020B4050020ED
:102EF0000014024000080240BC090020DC09002048
:102F0000FC0900201C0A0020642001F0BFF9FBE747
:102F1000022001F0BBF9FBE710B5FEF713F801F052
:102F200049FF012803D0BDE8104001F0D5BE10BD17
:102F300030B593B030216846FDF7EEF914210CA8A6
:102F4000FDF7EAF91D480025016841F08051016054
:102F5000006800F0805011901948016841F48041E8
:102F600001600068022400F4804011900120039069
:102F700010200490009406940820CDE90750A82062
:102F8000CDE9090404200B906846FEF765F908B105
:102F900072B6FEE70CA90F2081E831004FF4A05073
:102FA0000F904FF48050109005210CA8FEF768F8A0
:102FB000002801D072B6FEE713B030BD40380240A1
:102FC000007000400248016841F4700101607047E0
:102FD00088ED00E00148FEF759BD0000DC04002048
:102FE0000148FEF753BD000024050020F0B502683B
:102FF000254C264D264E274F274B4FF0804CA042A4
:1030000009D0604507D0A84205D0B04203D0B842ED
:1030100001D0984204D122F0700E4A6842EA0E02B2
:10302000A0421BD0604519D0A84217D0B04215D09D
:10303000B84213D0984211D0184DA8420ED0184D66
:10304000A8420BD0174DA84208D0174DA84205D072
:10305000164DA84202D0164DA84203D122F4407565
:10306000CA682A434D6922F080022A4302608A68B6
:10307000C2620A688262A04201D0984201D1096905
:10308000016301214161F0BD0000014000040040E6
:1030900000080040000C00400004014000400140D6
:1030A000004401400048014000180040001C00405E
:1030B0000020004010B501F01F030121046A99406F
:1030C0008C430462016A9A401143016210BD000002
:1030D000F0B5026A22F001020262036A4268846962
:1030E000124E24F073050C682C4323F002058B6804
:1030F0002B430D4DA84201D0B04205D123F0080763
:10310000CB683B4323F00403A84201D0B04205D171
:103110004D6922F4407215438A692A4342608461F2
:10312000496841630362F0BD0000014000040140B2
:10313000F0B5026A22F010020262026A43688469F2
:103140000D6824F4E64444EA05248D6822F0200248
:1031500042EA05120F4D104EA84201D0B04206D1EE
:10316000CF6822F0800242EA071222F04002A84211
:1031700001D0B04207D14D6923F4406343EA85038F
:103180008D6943EA85034360846149688163026213
:10319000F0BD00000000014000040140F0B5026AEB
:1031A00022F480720262026A4368C46922F40072E7
:1031B00024F073050C68124E2C438D6842EA0522F8
:1031C0000E4DA84201D0B04206D1CF6822F4006271
:1031D00042EA072222F48062A84201D0B04207D11D
:1031E0004D6923F4405343EA05138D6943EA0513FF
:1031F0004360C4614968C1630262F0BD00000140E0
:103200000004014030B5026A22F480520262046A6E
:103210004268C3690D6823F4E64343EA05238D68D9
:1032200024F4005444EA0534084DA84202D0084D65
:10323000A84204D14D6922F4804242EA85124260DC
:10324000C36149680164046230BD000000000140B0
:103250000004014010B5806B0021C185C184FEF7D8
:1032600039FE10BD01680C3151E8002F22F4907234
:1032700041E80023002BF5D10168143151E8002FFB
:1032800022F0010241E80023002BF5D1016B012956
:1032900009D101680C3151E8002F22F0100241E8F9
:1032A0000023002BF5D1202180F83E10002101637E
:1032B000704708B590F83E10222901D0022008BDC1
:1032C00082684FF480539A4201D1016921B1816A29
:1032D0009A421BD04AB10AE00268816A5268C2F37E
:1032E00008020A80816A891C08E0026972B10268DA
:1032F000526802F07F020A70816A491C8162C18DA6
:10330000491E0904090CC18503D019E002685268FE
:10331000F1E70168CA6822F02002CA600168CA6841
:1033200022F48072CA6001684A6922F001024A618F
:10333000202180F83E10016B012903D0FEF7D2FF57
:10334000002008BD0021016301680C3151E8002F05
:1033500022F0100241E80023002BF5D101680A6831
:10336000D20602D50A6849680091818DFEF7B1FD49
:10337000E6E7000070B5044600680169E26821F4E0
:103380004051114301612169A068E2690843616904
:10339000114308432168CA6849F20C639A43024307
:1033A000CA6020684169A26921F4407111434161FA
:1033B00031492068884202D03049884202D1FDF765
:1033C00009FF01E0FDF7F6FEE269002319216425FB
:1033D0003226B2F5004F626828D0A0FB0101930F9E
:1033E0009200FCF74FFF0146B0FBF5F06FF01802BA
:1033F000504301EB800006EB0010B0FBF5F000F04D
:10340000F002B1FBF5F002EB0012B1FBF5F06FF04A
:103410001803584301EB800006EB0010B0FBF5F0F9
:1034200000F00F0021681044886070BDA0FB01010E
:1034300092185B41FCF726FF0146B0FBF5F0020154
:10344000B1FBF5F06FF01803584301EB800006EB79
:10345000C000B0FBF5F000F0F80002EB4002B1FB59
:10346000F5F0584301EB800006EBC000B0FBF5F02F
:1034700000F00700D6E700000010014000140140F2
:1034800081628285C28500210164222280F83E206B
:1034900080F83C10016921B10168CA6842F4807269
:1034A000CA6001684A6942F001024A610068C16865
:1034B00041F02001C160002070472DE9F04198469D
:1034C00017460E460446069D27E0681C25D02DB100
:1034D000FDF7FAFBA0EB0800A8421ED920680C30CB
:1034E00050E8001F21F4D07140E80012002AF5D105
:1034F0002068143050E8001F21F0010140E800125C
:10350000002AF5D1202084F83D0084F83E000020F8
:1035100084F83C000320BDE8F0812068006836EAAA
:10352000000004D00020B842CFD00020F3E70120F3
:10353000F9E700000FB4094810B503AA029900F09A
:10354000E3F90649044682B2FF2301F52A70FEF72B
:103550002BFF204610BC5DF814FB00008C060020F9
:103560000148FEF7B9BC0000340900200148FEF70D
:10357000B3BC00007809002070B52DED028B054624
:10358000FDF7BEF9964CB0EE408AFDB1012D5AD040
:10359000022D74D0032D73D0042D72D1B0EE480AE1
:1035A000904801F0D3F8B0EE480A8F4801F0CEF809
:1035B000B0EE480A8D4801F0C9F8B0EE480ABDECFB
:1035C000028B8B48BDE8704001F0C0B82079854976
:1035D000502814D049281ED0442828D0562850D12D
:1035E000B0EE480A084601F0B1F818EE100AFDF7EF
:1035F00037F841EC100B7FA053EC102BC1E081EDAC
:10360000048A18EE100AFDF72BF841EC100B7CA091
:1036100053EC102BB5E081ED058A18EE100AFDF78A
:103620001FF841EC100B79A053EC102BA9E081EDB1
:10363000068A18EE100AFDF713F841EC100B76A07D
:1036400053EC102B9DE077A000F04EF920796649ED
:10365000502817D0492821D044282BD0562810D1E3
:10366000B0EE480A084601F071F818EE100AFCF7AF
:10367000F7FF41EC100B6FA053EC102B81E025E01D
:1036800064E0A8E081ED048A18EE100AFCF7E8FF78
:1036900041EC100B6AA053EC102B72E081ED058A0F
:1036A00018EE100AFCF7DCFF41EC100B67A053EC9E
:1036B000102B66E081ED068A18EE100AFCF7D0FFA9
:1036C00041EC100B64A053EC102B5AE065A000F005
:1036D0000BF920794549502814D049281ED0442898
:1036E00028D0562878D1B0EE480A084601F02EF8C6
:1036F00018EE100AFCF7B4FF41EC100B5DA053EC80
:10370000102B3EE081ED048A18EE100AFCF7A8FFAA
:1037100041EC100B5AA053EC102B32E081ED058ADE
:1037200018EE100AFCF79CFF41EC100B57A053EC6D
:10373000102B26E081ED068A18EE100AFCF790FFA8
:1037400041EC100B54A053EC102B1AE055A000F0E4
:10375000CBF820792649502819D0492823D044286D
:103760002DD0562838D1B0EE480A084600F0EEFFBA
:1037700018EE100AFCF774FF41EC100B4DA053EC4F
:10378000102BBDEC028BBDE8704000F0ADB881EDB0
:10379000048A18EE100AFCF763FF41EC100B48A0F6
:1037A00053EC102BEDE781ED058A18EE100AFCF7BB
:1037B00057FF41EC100B45A053EC102BE1E781EDD6
:1037C000068A18EE100AFCF74BFF41EC100B42A0E2
:1037D00053EC102BD5E7FFE7BDEC028B70BD00006A
:1037E0000C000020BC090020DC090020FC0900209E
:1037F0001C0A002056303D252E32660D0A000000BE
:1038000050303D252E32660D0A00000049303D251E
:103810002E32660D0A00000044303D252E32660D22
:103820000A0000004D6F746F725F6E203D20310DF5
:103830000A00000056313D252E32660D0A000000B8
:1038400050313D252E32660D0A00000049313D25DC
:103850002E32660D0A00000044313D252E32660DE1
:103860000A0000004D6F746F725F6E203D20320DB4
:103870000A00000056323D252E32660D0A00000077
:1038800050323D252E32660D0A00000049323D259A
:103890002E32660D0A00000044323D252E32660DA0
:1038A0000A0000004D6F746F725F6E203D20330D73
:1038B0000A00000056333D252E32660D0A00000036
:1038C00050333D252E32660D0A00000049333D2558
:1038D0002E32660D0A00000044333D252E32660D5F
:1038E0000A000000FEE700000FB4054B10B503A965
:1038F000044A029800F0FCF810BC5DF814FB0000CC
:1039000001420008BC00002037B514460846064BAB
:103910006A46214600F0ECF804466946002000F0B3
:103920006AFC20463EBD0000F74100080907090E69
:10393000002804DB00F1E02080F80014704700F05C
:103940000F0000F1E02080F8141D704702E008C865
:10395000121F08C1002AFAD170477047002001E009
:1039600001C1121F002AFBD1704700002DE9FF5F43
:1039700082B00021DDE90430020DDDF840B00343E0
:1039800018D044F61050A2F2FF3242431514119899
:1039900001281FD0A5EB0B00401C5FEA000A4FF086
:1039A00000064E4FDFF83891B046504615D5CAF1A3
:1039B000000413E0119801244AA3012801D16FEA01
:1039C0000B010298119AC0E90031C0E9024206B029
:1039D000BDE8F09FCBF10000DFE704460021404A3C
:1039E000491842EB0450CDE9001012E0E00707D07F
:1039F00032463B4640464946FCF740FD80468946F4
:103A000032463B4610461946FCF738FD06460F463F
:103A10006410002CEAD1DDE90401DDE90023BAF1EC
:103A2000000F06DAFCF72AFD42464B46FCF726FD5E
:103A300005E0FCF795FD42464B46FCF791FD044638
:103A40000E460022284BFCF72DFF03D84FF0FF3025
:103A5000014607E00022254B20463146FCF767FC73
:103A6000FCF708FF102409E0002C0ADB0A220023DF
:103A7000FCF708FC039B30321A55641E50EA010221
:103A8000F2D1641C039AC4F111031444119A012A5F
:103A900003D0012208430DD10AE0084304D00020DE
:103AA0004FF0110B119072E7A3EB0B056D1E0DE0AB
:103AB0005B4504DD4FF0000205F1010504E003DA87
:103AC0004FF00002A5F10105002AECD002981199EF
:103AD000C0E90231C0E9004579E700000000144068
:103AE0000000F03F300000000000F0430000E03F25
:103AF0002DE9FF4F95B09A46884606460025EEE12F
:103B0000252877D100242746F94A0121039400E0B3
:103B1000044316F8013F203B01FA03F01042F7D1AD
:103B200030782A2811D06FF02F033078A0F13002BE
:103B3000092A16D8039A44F0020402EB820203EB2E
:103B400042021044761C0390EFE758F8042B0392CE
:103B5000002A03DA504244F40054039044F0020473
:103B6000761C30782E2816D116F8010F44F0040484
:103B70002A280DD06FF02F023078A0F13003092BE6
:103B800009D807EB870302EB4303C718761CF3E75A
:103B900058F8047B761C30786C280FD006DC4C2853
:103BA00017D068280DD06A2814D104E0742810D0EA
:103BB0007A280FD10DE044F400140AE044F4801494
:103BC00001E044F440147278824202D104F580147A
:103BD000761C761C307866280BD013DC582877D0FA
:103BE00009DC002875D04528F6D04628F4D04728AF
:103BF0001AD193E118E0632835D0642879D065287C
:103C000012D18BE1702873D008DC6728F1D06928C5
:103C10006FD06E280DD06F2806D1ACE073282CD061
:103C2000752874D0782853D05246179990476D1C48
:103C300054E1C4F30250022809D003280DD0D8F86B
:103C4000001004280DD00D6008F1040846E1D8F8F2
:103C50000010EA17C1E90052F6E7D8F800100D800D
:103C6000F2E70D70F0E718F8041B8DF80010002043
:103C70008DF80100EB46012003E058F804BB4FF03B
:103C8000FF3061074FF0000102D40DE009F101019E
:103C90008946B9420FDA8145F8DB1BF80910002983
:103CA000F4D108E009F1010189468142FADB1BF8F1
:103CB00009100029F6D103985346A0EB09072146C5
:103CC0003846179A00F080FA284400EB090507E00F
:103CD00044E008E10DE01BF8010B524617999047AC
:103CE000B9F10109F7D2534621463846179AF2E056
:103CF00039E00A21C4F302524FF0000B0091022A6E
:103D000006D058F8040BC117032A09D00AE023E0B3
:103D100008F1070020F00702F2E80201904605E0F2
:103D200000B2C117042A01D140B2C117002906DA36
:103D30000A460021404261EB02012D2202E02205E9
:103D400004D52B228DF80420012203E0E20701D0E4
:103D50002022F7E7914657E00A2100E010214FF0BA
:103D6000000B00910BE010214FF0000B44F0040415
:103D70000827009103E008204FF0000B0090C4F3E7
:103D80000252022A05D058F8040B0021032A08D059
:103D900008E008F1070020F00702F2E8020190466F
:103DA00003E080B2042A00D1C0B24FF0000922071C
:103DB0002AD53278702A07D0DDF800C08CF0100CBC
:103DC0005CEA0B0C05D00EE040228DF804200122A5
:103DD00008E050EA010306D030238DF804308DF856
:103DE000052002229146009B83F0080353EA0B034F
:103DF0000AD150EA010201D1620705D530228DF8BF
:103E000004204FF001097F1E3278582A04D039A2CD
:103E10000C920CAA02920BE03BA2F9E75B46009AD7
:103E2000FCF730FA0C9B9B5C029A521E02921370B4
:103E300050EA0102F2D1029804A9081A00F1200BFD
:103E4000600702D524F4803400E001275F4502DDDD
:103E5000A7EB0B0000E0002000EB0B0100900398A3
:103E60004944401A0390E00306D453462146179A6A
:103E7000039800F0A9F90544002706E001A852467E
:103E8000C05D179990476D1C7F1C4F45F6DBE00322
:103E90000CD553462146179A039800F095F905442E
:103EA00004E030205246179990476D1C0099481E37
:103EB00000900029F5DC08E002980299524600784B
:103EC000491C0291179990476D1CBBF10001ABF1A1
:103ED000010BF1DC5BE100F065F90544761C3078FC
:103EE00000287FF40DAE19B02846BDE8F08F000021
:103EF00009280100303132333435363738396162C0
:103F00006364656600000000303132333435363783
:103F1000383941424344454600000000600700D460
:103F2000062708F1070020F00700F0E8022380468A
:103F300003F0004C5FEA0C0001D097A009E02005D7
:103F400001D596A005E0E00701D095A001E0AFF211
:103F50004C001390307823F0004365280CD006DC29
:103F6000452809D046281DD047287FD13BE0662848
:103F700018D067287AD136E00021112F01DB1120FB
:103F800000E0781CCDE9000104A90CA8FFF7EEFCC5
:103F9000DDE90D010C9A4FF0000B07F101091092B9
:103FA00000914EE04FF000400097CDE9011004A9C8
:103FB0000CA8FFF7DBFCDDE90D020C9B0F994FF01D
:103FC000000B91461093009211B9791C00EB010986
:103FD000B7EB090003D4C0F1FF3B07F10109A9EBDE
:103FE0000700019042E0012F00DA01270021112F84
:103FF00001DD112000E03846CDE9000104A90CA83C
:10400000FFF7B4FCDDE90D010C9A00914FF0000BB5
:10401000B946109221070FD4009A4A4503DA914617
:1040200001E0A9F10109B9F1010F05DD109AA9F12B
:104030000101515C3029F4D0B84202DA10F1040FCA
:1040400003DA0121CDE9011010E0002803DC8344EC
:10405000A9EB000102E0411C494500DD8946A0EBC7
:104060000B00401C01904FF000400290200705D447
:104070000198484502DB4FF0FF30019000208DF899
:104080004B0002980DF14B07B0F1004F25D00220F4
:104090000C902B200D90029800280CDA40420290E0
:1040A0002D200D9007E00A210298FCF708FB303123
:1040B000029007F8011D0C99481E0C900029F2DCB3
:1040C00002980028EFD1791E0D980870307800F022
:1040D000200040F0450007F8020D11A8C01BC01DCC
:1040E00002901398007800B1012000EB09010198BB
:1040F00001EBE071029801440398401A401E0390BE
:10410000E00306D453462146179A039800F05CF862
:1041100005441398007818B15246179990476D1CC2
:10412000E00323D553462146179A039800F04CF834
:1041300005441BE0BBF1000F07DB0098584504DD88
:104140001098179910F80B0001E01799302052468B
:10415000904701980BF1010B401E05F101050190FC
:1041600004D12E205246179990476D1CB9F10001D9
:10417000A9F10109DEDC05E017F8010B5246179999
:1041800090476D1C0299481E02900029F4DC5346AA
:104190002146179A03989EE62D0000002B00000090
:1041A000200000002DE9F041044600251E46174678
:1041B000880404D405E039462020B0476D1C641EF5
:1041C000F9D52846BDE8F0812DE9F04104460025E7
:1041D0001E469046C80301D5302700E020278804FA
:1041E00004D505E041463846B0476D1C641EF9D53C
:1041F0002846BDE8F0810A68531C0B6010707047B8
:1042000003490A685206FCD5C2B24A6070470000F2
:1042100000100140FCF79EFEFEF78AFEFEF74AF909
:10422000FEF7B6F9FEF72EFBFEF762FBFEF796FBF4
:10423000FEF7B8FBFEF7D8FBFEF7F2FBFEF7C8F976
:10424000FEF74EFAFEF780FAFEF70CFCFEF7B0FA26
:10425000FEF7E4FAFEF7DCF9FEF70EFA0648FDF782
:10426000A5FA0648FDF7A2FAFEF720FCFEF7F8F8DB
:1042700000F013F8FEE70000DC0400202405002015
:1042800001460020842900D0C81C704710B500B931
:10429000012000F015FC002010BD10B500F036FC28
:1042A000002010BD7FB50D4604464169B0F90800F5
:1042B00081B1A16971B1FFF7E3FFD4E905128DE87F
:1042C0000700D4E900102B46226900F048FD039056
:1042D00004B070BDFFF7D4FF03A9CDE90001208A27
:1042E0002B4682B2D4E9001000F00CFD012801D069
:1042F0000020EDE70398EBE72DE9F041184C0F465D
:104300000546E6682068001D00F012FB38B92068F9
:1043100090F82C1001208840216981432161681C9C
:1043200007D137B12168BDE8F0410E48091D00F002
:1043300043BB20683544B5424560216805D2A06B77
:10434000BDE8F041091D00F01FBB606B091D00F0C6
:104350001BFBA06A854200D2A562BDE8F081000087
:1043600054000020180B00202DE9F041054600F014
:104370002FFB2E4CA068401CA06020682C4F10B171
:10438000606940B32DE02560A068012829D100268E
:1043900006EB860007EB800000F0E8FA761C072E9B
:1043A000F6D323488C3000F0E1FA2148A03000F029
:1043B000DDFA1F48B43000F0D9FA1D48C83000F0CB
:1043C000D5FA1B48DC3000F0D1FA19488C30606314
:1043D0001430A06305E02068E96AC06A884200D80A
:1043E0002560606A401C6062E96A01202269884099
:1043F0001043206101EB810007EB8000291D00F0D4
:10440000DBFA00F005FB606900280CD02068E96A3F
:10441000C06A884207D207494FF080500860BFF356
:104420004F8FBFF36F8FBDE8F08100005400002074
:104430003C0A002004ED00E010B5044690F851005D
:1044400058B101280CD002280FD0502080F31188D9
:10445000BFF34F8FBFF36F8FFEE7206B00F0ECFAD6
:104460002046BDE8104000F0E7BA10BD10484FF4F8
:104470007051420706D0C01D0D4920F00700411AB7
:10448000C1F570510B4A00230144C2E90003083909
:10449000183A21F0070111604B600B600B1AC0E95C
:1044A000001393604FF0004053605061704700006C
:1044B0002C0B0020A8000020144E154CA6F1C807B4
:1044C0004FF08058DFF84C9012E000BF00F080FA07
:1044D000F068C568281D00F02BFAA068401EA06097
:1044E0006068401E606000F093FA2846FFF7A4FF62
:1044F00060680028EAD138680128F9D9C9F8008035
:10450000BFF34F8FBFF36F8FF2E70000040B002063
:104510005400002004ED00E02DE9F0479A46DDE963
:10452000098481466FF00303206B03EB8202104481
:10453000089E20F00707780707D0502080F31188E5
:10454000BFF34F8FBFF36F8FFEE7002561B10020EF
:1045500023180A5C83F834200A5C12B1401C10282E
:10456000F6D384F8435001E084F83450072E00D38A
:104570000626E662C4E91165201D00F002FA04F186
:10458000180000F0FEF92461C6F107006462A06122
:10459000E56484F8505052464946384600F0C0F869
:1045A0002060B8F1000F01D0C8F80040BDE8F087E6
:1045B00030B5114900E011460A688242FBD34B68CE
:1045C0005C18844203D14068184448600846436838
:1045D0001C18944209D1084C183C2468A24209D006
:1045E00052681A4442600A6812680260814200D030
:1045F000086030BD0460F9E7A80000200648416B60
:10460000096829B1416BC968C96849688162704706
:104610004FF0FF31FAE700005400002008484068DE
:10462000401C4FF0500080F3118804D0BFF34F8F2F
:10463000BFF36F8FFEE7BFF34F8FBFF36F8FFEE7C0
:10464000B00000202DE9F0410546002700F094FA63
:10465000324E306808B9FFF709FF706905424ED144
:10466000C5B3083568070ED005F00700C0F1080093
:104670000544680707D0502080F31188BFF34F8F9F
:10468000BFF36F8FFEE72DB37068854237D823489C
:10469000183001460C6801E020460C466168A942CA
:1046A00002D221680029F7D131688C4227D00768EF
:1046B0002168016060680837411B10290FD9601913
:1046C000420708D0502080F31188BFF34F8FBFF30B
:1046D0006F8FFEE713E041606560FFF769FF616877
:1046E0007068401A7060B268904200D2B060706921
:1046F00001430020C4E90001F068401CF06000F0B4
:10470000CDFB780707D0502080F31188BFF34F8F7F
:10471000BFF36F8FFEE73846BDE8F08190000020C0
:1047200010B5031F4FF080741C601B1F21F00101A6
:104730001960191F044B0B6014390A60091F6FF0D0
:10474000020244380A6010BD1D46000880ED000AD0
:10475000704700000D4810B50068FBF770FFFBF7CD
:1047600092FF00EE100A0A4800F0A6F810EE100AB8
:104770000849884202DD9FED080A10BD10EE100ABC
:1047800006498842F9D99FED060A10BD3400002081
:10479000BC0900200000FA440000FA440000FAC4FA
:1047A0000000FAC40D4810B50068FBF748FFFBF79E
:1047B0006AFF00EE100A0A4800F07EF810EE100AB8
:1047C0000849884202DD9FED080A10BD10EE100A6C
:1047D00006498842F9D99FED060A10BD3C00002029
:1047E000FC0900200000FA440000FA440000FAC46A
:1047F0000000FAC40D4810B50068FBF720FFFBF776
:1048000042FF00EE100A0A4800F056F810EE100AB7
:104810000849884202DD9FED080A10BD10EE100A1B
:1048200006498842F9D99FED060A10BD38000020DC
:10483000DC0900200000FA440000FA440000FAC439
:104840000000FAC410B514482DED028B0068FBF788
:10485000F6FE41EC180B11A053EC182BFEF76AFE84
:1048600051EC180BFBF70FFF00EE100A0D4800F09B
:1048700023F810EE100A0C49884204DD9FED0B0A64
:10488000BDEC028B10BD10EE100A09498842F7D921
:104890009FED080AF4E7000040000020256C660D3B
:1048A0000A0000001C0A00200000FA440000FA443C
:1048B0000000FAC40000FAC4D0ED000A184A70EEF5
:1048C000C00AC0ED020A90ED070A30EE200A10EE91
:1048D000101A80ED070A914202DB9FED120A06E0F2
:1048E00010EE101A104A914203D99FED100A80ED84
:1048F000070A90ED040A90ED051AD0ED071A20EE94
:10490000200A01EE210A90ED031AD0ED061A30EECE
:10491000C11A01EE810A80ED010AC0ED030A704759
:104920000000964400009644000096C4000096C41F
:10493000D0E9013201699A60D0E901235A604A68DE
:10494000824201D182684A60002202610868401EEA
:104950000860086870470000034B036003F15400CF
:104960000860802010607047C000002000F108013E
:104970004FF0FF32C0E90112C16001610021016006
:10498000704700210161704730B50B685A1C02D096
:1049900000F1080202E0026904E02246546825683A
:1049A0009D42FAD953684B6099608A6051600861F2
:1049B0000168491C016030BD42684A6093688B60A1
:1049C00093685960916008610168491C01607047F3
:1049D000502080F31188BFF34F8FBFF36F8F0A49C8
:1049E0004868401C486001280CD10848006810F055
:1049F000FF0F07D0502080F31188BFF34F8FBFF314
:104A00006F8FFEE770470000B000002004ED00E06B
:104A10000849486828B1401E486001D180F31188D8
:104A20007047502080F31188BFF34F8FBFF36F8F13
:104A3000FEE70000B000002070B500282AD0164D17
:104A4000A0F1080460686969084207D1502080F32A
:104A50001188BFF34F8FBFF36F8FFEE722683AB123
:104A6000502080F31188BFF34F8FBFF36F8FFEE7A5
:104A70008843606000F080F8606869680844686096
:104A80002046FFF795FD2869401C2861BDE870406D
:104A900000F004BA70BD0000900000204FF0E0204C
:104AA00000210161816105494FF47A720968B1FB07
:104AB000F2F1491E41610721016170472000002089
:104AC00010B5020014D00F48006B38B1502080F3AD
:104AD0001188BFF34F8FBFF36F8FFEE700F04CF8E4
:104AE00000211046FFF708FC00F0D8F9002807D194
:104AF00005494FF080500860BFF34F8FBFF36F8FB1
:104B000010BD00005400002004ED00E010B586B098
:104B10000024039405AA04A903A80494FFF71CFF2A
:104B2000DDE903010094CDE9011000230EA1104836
:104B3000059A00F014F90F490028C86211D05020DE
:104B400080F31188BFF34F8FBFF36F8F4FF0FF30AB
:104B5000886201204861CC6006B0BDE8104000F0DA
:104B600041B806B010BD000049444C4500000000AB
:104B7000B9440008540000200248016B491C01633D
:104B800070470000540000201448016B11B101214E
:104B9000C16170470021C1610169B1FA81F1C1F1C0
:104BA0001F0101EB81020E4951F822306BB101EB7C
:104BB000820101F108034A6852684A609A4201D1B1
:104BC00052684A60D16801607047502080F31188B4
:104BD000BFF34F8FBFF36F8FFEE70000540000203C
:104BE0003C0A00201CB537480168374A914207D17A
:104BF000502080F31188BFF34F8FBFF36F8FFEE714
:104C000000683149491E884207D1502080F311883D
:104C1000BFF34F8FBFF36F8FFEE72C4908780190E9
:104C2000FF20087008788DF800009DF800009DF8BE
:104C3000002000F0F000904207D0502080F311884F
:104C4000BFF34F8FBFF36F8FFEE79DF80000204C3E
:104C500000F0500020700720A06005E09DF80020C3
:104C600052008DF80020401E9DF800201206F5D459
:104C7000A060032807D0502080F31188BFF34F8F26
:104C8000BFF36F8FFEE74FF44070A060019808708B
:104C90000C482030016841F470010160016841F066
:104CA00070410160FFF7FAFE00206060FBF79CFA9C
:104CB0000848016841F040410160FBF781FA00209B
:104CC0001CBD000000ED00E071C20F4100E400E0F7
:104CD000B000002034EF00E010B5502080F31188C0
:104CE000BFF34F8FBFF36F8F00F072F818B1044914
:104CF0004FF080500860002080F3118810BD000044
:104D000004ED00E02DE9FF5F8346DDE90E8799465B
:104D100016468A469000FFF795FC05001CD05420EB
:104D2000FFF790FC040014D00020256384F85100A4
:104D3000CDE90240CDE900874B4632465146584600
:104D4000FFF7EAFB2046FFF70FFB012004B0BDE8A8
:104D5000F09F2846FFF770FE4FF0FF30F6E7F0B502
:104D600085B0DDE90B640A9DA6B1DCB1542700973C
:104D70002663022684F85160002604AFCDE902467E
:104D8000CDE90057FFF7C8FB2046FFF7EDFA04987E
:104D900005B0F0BD502080F31188BFF34F8FBFF3F3
:104DA0006F8FFEE7502080F31188BFF34F8FBFF362
:104DB0006F8FFEE70548416919B1006B18B10020FB
:104DC0007047012070470220704700005400002007
:104DD0002DE9F0412F4C0026206B28B1A069401C22
:104DE000A0613046BDE8F081E5686D1CE56013D137
:104DF000606B006838B1502080F31188BFF34F8F8B
:104E0000BFF36F8FFEE7606BA16B6163A063206AE5
:104E1000401C2062FFF7F2FBA06ADFF87C8085422D
:104E200009D3606B0068A0B1606BC068C768786820
:104E3000854211D2A0622068C06A00EB800158F858
:104E40002100012800D90126E0690028C9D00126E7
:104E5000C7E74FF0FF30EDE7381DFFF769FDB86A8F
:104E600018B107F11800FFF763FDF96A0120226904
:104E700088401043206101EB810108EB8100391D5E
:104E8000FFF79AFDF86A2168C96A8842C9D30126EA
:104E9000C7E70000540000203C0A00202DE9F0473D
:104EA0002C4D00242746286B38B1FFF791FD286B65
:104EB000401E2863286B40B146E0502080F31188E3
:104EC000BFF34F8FBFF36F8FFEE7A968224E01201B
:104ED000D1B3A6F1B40980463068E8B1F068C4687F
:104EE00004F11800FFF724FD201DFFF721FDE06A03
:104EF0002A6908FA00F11143296100EB800109EBEE
:104F00008100211DFFF758FDE06A2968C96A8842BF
:104F1000E2D3C5F81C80DFE70CB1FFF76FFBAC698B
:104F200044B14646FFF754FF00B1EE61641EF9D16B
:104F30000020A861E86938B10849012738070860EE
:104F4000BFF34F8FBFF36F8FFFF762FD3846BDE8A9
:104F5000F087000054000020F00A002004ED00E07B
:104F6000E44F0008352E000800000000000000009B
:104F7000800000000000000000000000CC4F00088E
:104F8000092F0008FDFF00000000000000010000E4
:104F90000000000000000000D84F0008112F00089A
:104FA000FDFF000000000000000100000000000004
:104FB00000000000000000000000000001020304E7
:104FC0000607080900000000010203046D7954611E
:104FD000736B3032000000006D795461736B3033B5
:104FE0000000000064656661756C745461736B0049
:104FF0001050000800000020C00000004C390008DC
:10500000D0500008C0000020704A00005C39000841
:105010000000000000000000000000000000000090
:10502000000000000100000010000000000000006F
:105030000024F40000000000000000000000000058
:105040000000000000000000000000000000000060
:105050000000000000000000000000000000000050
:105060000000000000000000000000000000000040
:105070000000000000000000000000000000000030
:105080000000000000000000000000000000000020
:105090000000000000000000000000000000000010
:1050A0000000000000000000000000000000000000
:1050B00000000000000000000000000000000000F0
:1050C00000000000AAAAAAAA000000000000000038
:040000050800018965
:00000001FF
